{
  "_format": "hh-sol-artifact-1",
  "contractName": "Marketplace",
  "sourceName": "contracts/Marketplace.sol",
  "abi": [
    {
      "inputs": [
        {
          "internalType": "uint256",
          "name": "_feepercent",
          "type": "uint256"
        }
      ],
      "stateMutability": "nonpayable",
      "type": "constructor"
    },
    {
      "anonymous": false,
      "inputs": [
        {
          "indexed": false,
          "internalType": "uint256",
          "name": "itemid",
          "type": "uint256"
        },
        {
          "indexed": true,
          "internalType": "address",
          "name": "nft",
          "type": "address"
        },
        {
          "indexed": false,
          "internalType": "uint256",
          "name": "tokenID",
          "type": "uint256"
        },
        {
          "indexed": false,
          "internalType": "uint256",
          "name": "price",
          "type": "uint256"
        },
        {
          "indexed": true,
          "internalType": "address",
          "name": "seller",
          "type": "address"
        }
      ],
      "name": "Create",
      "type": "event"
    },
    {
      "anonymous": false,
      "inputs": [
        {
          "indexed": false,
          "internalType": "uint256",
          "name": "itemid",
          "type": "uint256"
        },
        {
          "indexed": true,
          "internalType": "address",
          "name": "nft",
          "type": "address"
        },
        {
          "indexed": false,
          "internalType": "uint256",
          "name": "tokenID",
          "type": "uint256"
        },
        {
          "indexed": false,
          "internalType": "uint256",
          "name": "price",
          "type": "uint256"
        },
        {
          "indexed": true,
          "internalType": "address",
          "name": "seller",
          "type": "address"
        },
        {
          "indexed": true,
          "internalType": "address",
          "name": "buyer",
          "type": "address"
        }
      ],
      "name": "Purchased",
      "type": "event"
    },
    {
      "inputs": [
        {
          "internalType": "uint256",
          "name": "_itemId",
          "type": "uint256"
        }
      ],
      "name": "buy",
      "outputs": [],
      "stateMutability": "payable",
      "type": "function"
    },
    {
      "inputs": [
        {
          "internalType": "contract IERC721",
          "name": "_nft",
          "type": "address"
        },
        {
          "internalType": "uint256",
          "name": "_tokenid",
          "type": "uint256"
        },
        {
          "internalType": "uint256",
          "name": "_price",
          "type": "uint256"
        }
      ],
      "name": "create",
      "outputs": [],
      "stateMutability": "nonpayable",
      "type": "function"
    },
    {
      "inputs": [],
      "name": "feepercent",
      "outputs": [
        {
          "internalType": "uint256",
          "name": "",
          "type": "uint256"
        }
      ],
      "stateMutability": "view",
      "type": "function"
    },
    {
      "inputs": [
        {
          "internalType": "uint256",
          "name": "_itemId",
          "type": "uint256"
        }
      ],
      "name": "getTotalprice",
      "outputs": [
        {
          "internalType": "uint256",
          "name": "",
          "type": "uint256"
        }
      ],
      "stateMutability": "view",
      "type": "function"
    },
    {
      "inputs": [],
      "name": "itemcount",
      "outputs": [
        {
          "internalType": "uint256",
          "name": "",
          "type": "uint256"
        }
      ],
      "stateMutability": "view",
      "type": "function"
    },
    {
      "inputs": [
        {
          "internalType": "uint256",
          "name": "",
          "type": "uint256"
        }
      ],
      "name": "items",
      "outputs": [
        {
          "internalType": "uint256",
          "name": "itemid",
          "type": "uint256"
        },
        {
          "internalType": "contract IERC721",
          "name": "nft",
          "type": "address"
        },
        {
          "internalType": "uint256",
          "name": "tokenId",
          "type": "uint256"
        },
        {
          "internalType": "uint256",
          "name": "price",
          "type": "uint256"
        },
        {
          "internalType": "address payable",
          "name": "seller",
          "type": "address"
        },
        {
          "internalType": "bool",
          "name": "sold",
          "type": "bool"
        }
      ],
      "stateMutability": "view",
      "type": "function"
    },
    {
      "inputs": [],
      "name": "owner",
      "outputs": [
        {
          "internalType": "address payable",
          "name": "",
          "type": "address"
        }
      ],
      "stateMutability": "view",
      "type": "function"
    }
  ],
  "bytecode": "0x60c060405234801561001057600080fd5b506040516111d63803806111d683398181016040528101906100329190610094565b60016000819055503373ffffffffffffffffffffffffffffffffffffffff1660808173ffffffffffffffffffffffffffffffffffffffff1660601b815250508060a08181525050506100de565b60008151905061008e816100c7565b92915050565b6000602082840312156100a657600080fd5b60006100b48482850161007f565b91505092915050565b6000819050919050565b6100d0816100bd565b81146100db57600080fd5b50565b60805160601c60a0516110bb61011b6000396000818161054a01526109ca0152600081816101c20152818161052201526107c301526110bb6000f3fe6080604052600436106100705760003560e01c8063a518d1e51161004e578063a518d1e5146100f4578063bfb231d214610131578063d96a094a14610173578063de65256e1461018f57610070565b80634232dc02146100755780635165da30146100a05780638da5cb5b146100c9575b600080fd5b34801561008157600080fd5b5061008a6101ba565b6040516100979190610c7a565b60405180910390f35b3480156100ac57600080fd5b506100c760048036038101906100c29190610a16565b6101c0565b005b3480156100d557600080fd5b506100de610520565b6040516100eb9190610b88565b60405180910390f35b34801561010057600080fd5b5061011b60048036038101906101169190610a65565b610544565b6040516101289190610c7a565b60405180910390f35b34801561013d57600080fd5b5061015860048036038101906101539190610a65565b6105a7565b60405161016a96959493929190610c95565b60405180910390f35b61018d60048036038101906101889190610a65565b610630565b005b34801561019b57600080fd5b506101a46109c8565b6040516101b19190610c7a565b60405180910390f35b60015481565b7f000000000000000000000000000000000000000000000000000000000000000073ffffffffffffffffffffffffffffffffffffffff163373ffffffffffffffffffffffffffffffffffffffff161461024e576040517f08c379a000000000000000000000000000000000000000000000000000000000815260040161024590610bfa565b60405180910390fd5b60026000541415610294576040517f08c379a000000000000000000000000000000000000000000000000000000000815260040161028b90610c5a565b60405180910390fd5b6002600081905550600081116102df576040517f08c379a00000000000000000000000000000000000000000000000000000000081526004016102d690610c1a565b60405180910390fd5b600160008154809291906102f290610ee3565b91905055508273ffffffffffffffffffffffffffffffffffffffff166323b872dd3330856040518463ffffffff1660e01b815260040161033493929190610ba3565b600060405180830381600087803b15801561034e57600080fd5b505af1158015610362573d6000803e3d6000fd5b505050506040518060c0016040528060015481526020018473ffffffffffffffffffffffffffffffffffffffff1681526020018381526020018281526020013373ffffffffffffffffffffffffffffffffffffffff168152602001600015158152506002600060015481526020019081526020016000206000820151816000015560208201518160010160006101000a81548173ffffffffffffffffffffffffffffffffffffffff021916908373ffffffffffffffffffffffffffffffffffffffff160217905550604082015181600201556060820151816003015560808201518160040160006101000a81548173ffffffffffffffffffffffffffffffffffffffff021916908373ffffffffffffffffffffffffffffffffffffffff16021790555060a08201518160040160146101000a81548160ff0219169083151502179055509050503373ffffffffffffffffffffffffffffffffffffffff168373ffffffffffffffffffffffffffffffffffffffff167ff1d68fc094d9c34227dc0e9ba965452f36ff2f2fab6afcc37403e26a521d1020600154858560405161050b93929190610cf6565b60405180910390a36001600081905550505050565b7f000000000000000000000000000000000000000000000000000000000000000081565b600060647f000000000000000000000000000000000000000000000000000000000000000060646105759190610d3e565b60026000858152602001908152602001600020600301546105969190610dc5565b6105a09190610d94565b9050919050565b60026020528060005260406000206000915090508060000154908060010160009054906101000a900473ffffffffffffffffffffffffffffffffffffffff16908060020154908060030154908060040160009054906101000a900473ffffffffffffffffffffffffffffffffffffffff16908060040160149054906101000a900460ff16905086565b60026000541415610676576040517f08c379a000000000000000000000000000000000000000000000000000000000815260040161066d90610c5a565b60405180910390fd5b6002600081905550600061068982610544565b905060006002600084815260200190815260200160002090506000831180156106b457506001548311155b6106f3576040517f08c379a00000000000000000000000000000000000000000000000000000000081526004016106ea90610c3a565b60405180910390fd5b8134101561070057600080fd5b8060040160149054906101000a900460ff1615610752576040517f08c379a000000000000000000000000000000000000000000000000000000000815260040161074990610bda565b60405180910390fd5b8060040160009054906101000a900473ffffffffffffffffffffffffffffffffffffffff1673ffffffffffffffffffffffffffffffffffffffff166108fc82600301549081150290604051600060405180830381858888f193505050501580156107c0573d6000803e3d6000fd5b507f000000000000000000000000000000000000000000000000000000000000000073ffffffffffffffffffffffffffffffffffffffff166108fc82600301548461080b9190610e1f565b9081150290604051600060405180830381858888f19350505050158015610836573d6000803e3d6000fd5b5060018160040160146101000a81548160ff0219169083151502179055508060010160009054906101000a900473ffffffffffffffffffffffffffffffffffffffff1673ffffffffffffffffffffffffffffffffffffffff166323b872dd303384600201546040518463ffffffff1660e01b81526004016108b993929190610ba3565b600060405180830381600087803b1580156108d357600080fd5b505af11580156108e7573d6000803e3d6000fd5b505050503373ffffffffffffffffffffffffffffffffffffffff168160040160009054906101000a900473ffffffffffffffffffffffffffffffffffffffff1673ffffffffffffffffffffffffffffffffffffffff168260010160009054906101000a900473ffffffffffffffffffffffffffffffffffffffff1673ffffffffffffffffffffffffffffffffffffffff167f2acb7d5ebd2f8787d726dd1ee0516bf2b4831d194d339cdc0328cbed8117ffbd86856002015486600301546040516109b393929190610cf6565b60405180910390a45050600160008190555050565b7f000000000000000000000000000000000000000000000000000000000000000081565b6000813590506109fb81611057565b92915050565b600081359050610a108161106e565b92915050565b600080600060608486031215610a2b57600080fd5b6000610a39868287016109ec565b9350506020610a4a86828701610a01565b9250506040610a5b86828701610a01565b9150509250925092565b600060208284031215610a7757600080fd5b6000610a8584828501610a01565b91505092915050565b610a9781610e65565b82525050565b610aa681610e53565b82525050565b610ab581610e77565b82525050565b610ac481610ebf565b82525050565b6000610ad7601183610d2d565b9150610ae282610f8a565b602082019050919050565b6000610afa601283610d2d565b9150610b0582610fb3565b602082019050919050565b6000610b1d601883610d2d565b9150610b2882610fdc565b602082019050919050565b6000610b40601183610d2d565b9150610b4b82611005565b602082019050919050565b6000610b63601f83610d2d565b9150610b6e8261102e565b602082019050919050565b610b8281610eb5565b82525050565b6000602082019050610b9d6000830184610a8e565b92915050565b6000606082019050610bb86000830186610a9d565b610bc56020830185610a9d565b610bd26040830184610b79565b949350505050565b60006020820190508181036000830152610bf381610aca565b9050919050565b60006020820190508181036000830152610c1381610aed565b9050919050565b60006020820190508181036000830152610c3381610b10565b9050919050565b60006020820190508181036000830152610c5381610b33565b9050919050565b60006020820190508181036000830152610c7381610b56565b9050919050565b6000602082019050610c8f6000830184610b79565b92915050565b600060c082019050610caa6000830189610b79565b610cb76020830188610abb565b610cc46040830187610b79565b610cd16060830186610b79565b610cde6080830185610a8e565b610ceb60a0830184610aac565b979650505050505050565b6000606082019050610d0b6000830186610b79565b610d186020830185610b79565b610d256040830184610b79565b949350505050565b600082825260208201905092915050565b6000610d4982610eb5565b9150610d5483610eb5565b9250827fffffffffffffffffffffffffffffffffffffffffffffffffffffffffffffffff03821115610d8957610d88610f2c565b5b828201905092915050565b6000610d9f82610eb5565b9150610daa83610eb5565b925082610dba57610db9610f5b565b5b828204905092915050565b6000610dd082610eb5565b9150610ddb83610eb5565b9250817fffffffffffffffffffffffffffffffffffffffffffffffffffffffffffffffff0483118215151615610e1457610e13610f2c565b5b828202905092915050565b6000610e2a82610eb5565b9150610e3583610eb5565b925082821015610e4857610e47610f2c565b5b828203905092915050565b6000610e5e82610e95565b9050919050565b6000610e7082610e95565b9050919050565b60008115159050919050565b6000610e8e82610e53565b9050919050565b600073ffffffffffffffffffffffffffffffffffffffff82169050919050565b6000819050919050565b6000610eca82610ed1565b9050919050565b6000610edc82610e95565b9050919050565b6000610eee82610eb5565b91507fffffffffffffffffffffffffffffffffffffffffffffffffffffffffffffffff821415610f2157610f20610f2c565b5b600182019050919050565b7f4e487b7100000000000000000000000000000000000000000000000000000000600052601160045260246000fd5b7f4e487b7100000000000000000000000000000000000000000000000000000000600052601260045260246000fd5b7f6974656d20616c726561647920736f6c64000000000000000000000000000000600082015250565b7f796f7520617265206e6f7420206f776e65720000000000000000000000000000600082015250565b7f70726963652073686f756c64206e6f74206265207a65726f0000000000000000600082015250565b7f6974656d20646f73656e74206578697374000000000000000000000000000000600082015250565b7f5265656e7472616e637947756172643a207265656e7472616e742063616c6c00600082015250565b61106081610e83565b811461106b57600080fd5b50565b61107781610eb5565b811461108257600080fd5b5056fea264697066735822122009b1bf51cb0d1de94dd14d9cd428f5e7e2fb3bd185d9ab8e5e9f5ed81ee1c54064736f6c63430008040033",
  "linkReferences": {},
  "deployedLinkReferences": {}
}